:020000040800F2
:1000000068090020C5000008F1170008F711000872
:1000100000000000000000000000000000000000E0
:100020000000000000000000000000003B18000875
:1000300000000000000000003918000855180008F2
:10004000D700000800000000D7000008D700000813
:10005000D7000008D7000008D7000008A901000851
:1000600000000000D7000008D7000008D7000008F3
:10007000D7000008D7000008D700000800000000E3
:10008000691900080000000000000000D700000807
:1000900000000000D7000008D7000008D7000008C3
:1000A00000000000D700000800000000591F0008F1
:1000B0000348854600F04EF800480047B91F000885
:1000C000680900200448804704480047FEE7FEE72F
:1000D000FEE7FEE7FEE7FEE70D190008B1000008A5
:1000E00030B50B46014600202022012409E00D46D0
:1000F000D5409D4205D31D469540491B2546954058
:1001000040191546521E002DF1DC30BD03460B434D
:100110009B0703D009E008C9121F08C0042AFAD2BD
:1001200003E00B780370401C491C521EF9D2704743
:10013000D2B201E00270401C491EFBD2704700227F
:10014000F6E710B513460A4604461946FFF7F0FFD6
:10015000204610BD064C0125064E05E0E36807CC9D
:100160002B430C3C98471034B442F7D3FFF7A4FF5D
:10017000EC2300080C24000830B502460848094D5D
:1001800007E0137843401C06030AE00D285A584044
:10019000521C0B46491EC9B2002BF2D130BD0000E3
:1001A000FFFF0000AC21000810B5202000F04CF843
:1001B00003490120496B08830249087210BD000001
:1001C0001C0000205C0200207047000001484068CD
:1001D00070470000040000200A2804D206494000AD
:1001E0000A5A012A01D000207047034A143A125AD1
:1001F0000A520120704700008402002070B50024DC
:10020000014620314A78022A03D004218163012467
:1002100016E0026813680E25AB431360026813688A
:100220005B085B0013600122056C1346AB40C56B95
:100230006B604A7000220A70416B002900D0884729
:10024000204670BD7047000010B504494A6902425B
:1002500002D04861FFF7F6FF10BD00000004014026
:10026000F8B500238DE001249C40A44622407DD0B7
:100270004C68022C01D0122C0CD1DC08A4002718E9
:100280003C6A5D07ED0E0F26AE40B4430E69AE40EA
:1002900026433E6205685E000324B4400F79A543FF
:1002A000BF07BF0FB7402F4307604D68012D05D032
:1002B000022D03D0112D01D0122D0ED18568CF68EB
:1002C000A543B7402F43876047686546AF430D7924
:1002D000ED06ED0F9D403D434560C568A5438C6824
:1002E000B4402C43C4604C68E40049D5284CA5694F
:1002F00001263543A561A4699D0834400094254C2E
:10030000AD002F19BC689D072E0F0F25B540AC43DB
:100310000925ED06A84201D100250FE01E4DA84297
:1003200001D101250AE01D4DA84201D1022505E0B9
:100330001B4DA84201D1032500E00525B54025430A
:10034000BD60184C25684E689543F60300D51543EB
:10035000256065684E689543B60300D51543656012
:10036000A5684E689543F60202D500E008E0154303
:10037000A560E5684E689543B60200D51543E56073
:100380005B1C0A681446DC4000D06CE7F8BD000036
:10039000001002400000014000040048000800482E
:1003A000000C00480004014042694A404261704725
:1003B000002A01D08161704781627047014800685E
:1003C000704700000C00002070B504000FD02168B9
:1003D0001348086021681348086003CC4160206816
:1003E000083C21688860FFF7E9FF054608E0012026
:1003F00070BDFFF7E3FF401B272801D9032070BD24
:100400002068C0680028F4D120680269E1688A4247
:1004100001D0016101E004490160002070BD0000CD
:10042000CCCC000055550000AAAA00000068024983
:100430000160002070470000AAAA0000024801687D
:10044000491C0160704700000C00002010B50648F0
:100450000168102211430160002000F007F800F04D
:1004600017F8002010BD00000020024010B504461F
:1004700000F03AF97D21C900FFF732FE00F030FBB1
:1004800000222146501E00F021F8002010BD00007F
:1004900008B50848816901221143816181691140D1
:1004A0000091C26901040A43C261C069084000901A
:1004B00008BD000000100240C106C90E012088409E
:1004C000014908607047000000E100E010B501F04C
:1004D00091F910BDF8B505460068354CC00352D5FA
:1004E000E0690026C00007D4E16920040143E1610E
:1004F000E1690140012600912E480168C90510D428
:100500000168821511430160FFF758FF074604E0B8
:10051000FFF754FFC01B642824D826480068C00594
:10052000F6D5206A03273F02384020D06968394059
:1005300081421CD0206A226AB843012109040A437F
:100540002262226A8A4322622062C0070FD0FFF72C
:1005500035FF009008E0FFF731FF0099411A164877
:10056000814201D90320F8BD206A8007F3D5206AB3
:100570006968B84308432062002E04D0E169012075
:1005800000078143E1612878C00705D0206BA96886
:1005900080088000084320632878800605D5206BFA
:1005A00010218843E968084320630020F8BD00005B
:1005B000001002400070004088130000F8B50546A6
:1005C00044480E460068C007C00FB0420AD24148F6
:1005D000016849084900314301600068C007C00F45
:1005E000B0425CD128783C4C800705D56068F0218A
:1005F0008843A968084360602878C0073FD06868CE
:10060000012813D02168022813D08907002946DA6F
:1006100061688908890001436160FFF7CFFE69685E
:10062000074601290DD0022917D024E0216889034B
:10063000ECE78901EAE7FFF7C1FEC11B27488142C9
:1006400017D860680007800F0128F4D117E0FFF782
:10065000B5FEC11B214881420BD860680007800F9E
:100660000228F4D10BE0FFF7A9FEC11B1B48814211
:1006700001D90320F8BD60680007800FF3D1154849
:100680000168C907C90FB1420BD90168490849007F
:10069000314301600068C007C00FB04201D00120A3
:1006A000F8BD2878400706D560680721090288430D
:1006B000E9680843606000F02DF86168084A09069F
:1006C000090F515CC840074908600020FFF7CEFEC3
:1006D0000020F8BD002002400010024088130000F6
:1006E000D423000810000020014800687047000073
:1006F000100000200448054900684968044A49057B
:10070000490F515CC84070471000002000100240A3
:10071000E423000810B512A30FCB88B06C460FC4B9
:1007200013A30FCB0FC416494A680C20134603408D
:100730001448042B0FD0082B0DD193021B0F6C46CD
:10074000E45CC96A04AB0907090F595CD20304D5FC
:10075000FFF7C6FC604308B010BD0B486043FAE7E2
:1007600002030405060708090A0B0C0D0E0F1010F2
:100770000102030405060708090A0B0C0D0E0F10F1
:100780000010024000127A0000093D00FEB5044648
:100790000078D04DC00747D068680007800F012857
:1007A00007D068680007800F022809D16868C00375
:1007B00006D52868800337D5606800287ED033E0EE
:1007C000012062680004012A11D08100002A01D0B2
:1007D000052A10D02A6882432A6028688843286046
:1007E0006068002814D0FFF7E9FD06460CE0296890
:1007F00001432960F4E72A680A432A60F7E7FFF714
:10080000DDFD801B64286FD828688003F7D50BE0D6
:10081000FFF7D4FD064604E0FFF7D0FD801B6428F7
:10082000F1D828688003F7D42078012680070028B3
:100830003BDA68680007800F07D068680007800F00
:10084000022809D16868C00306D42868800715D536
:10085000E068012832D111E0E0680028286815D04E
:1008600030432860FFF7AAFD074604E0FFF7A6FD26
:10087000C01B0228C7D828688007F7D52868F82148
:1008800088432169C900084328600EE04008400001
:100890002860FFF793FD074604E0FFF78FFDC01BBC
:1008A0000228B0D828688007F7D42078000724D51C
:1008B000E0690028686A10D0304300E008E168620F
:1008C000FFF77CFD074604E0FFF778FDC01B022818
:1008D00099D8686A8007F7D50FE040084000686241
:1008E000FFF76CFD074605E09DE0FFF767FDC01BC5
:1008F000022888D8686A8007F7D420780427400740
:10090000002860DA00200190E869C00008D4E96995
:10091000B8060143E961E9690140012000910190B5
:100920006D480168C90511D4016882151143016041
:10093000FFF744FD009005E0FFF740FD0099401AE5
:10094000642870D864480068C005F5D5A0680128FF
:100950000AD0002801D0052810D0286A400840009D
:100960002862286AB84301E0286A30432862A068F8
:10097000002812D0FFF722FD00900AE0286A3843D1
:100980002862F1E7FFF71AFD0099411A53488142A6
:1009900049D8286A8007F5D50DE0FFF70FFD0090D4
:1009A00006E0FFF70BFD0099411A4C4881423AD806
:1009B000286A8007F5D40198002804D0E96901204D
:1009C00000078143E9612078C00635D560690128B8
:1009D0000CD0401D686B23D038436863686B4008B7
:1009E00040006863FFF7EAFC064622E0686B384384
:1009F0006863686B30436863FFF7E0FC064604E019
:100A0000FFF7DCFC801B02285BD8686B8007F7D5FA
:100A1000686BF8218843A169C900084368630BE04B
:100A2000B8436863F4E74CE0FFF7C8FC801B02287A
:100A300047D8686B8007F7D4206A002846D06968D9
:100A40000907890F022943D00126360602282868A3
:100A500005D0B0432860FFF7B1FC044633E0B04353
:100A60002860FFF7ABFC074604E0FFF7A7FCC01BBC
:100A7000022826D828688001F7D4E86AE16A0009CC
:100A800000010843E862616AA06A084369683D2280
:100A90001204914308436860286830432860FFF7D8
:100AA0008DFC044604E0FFF789FC001B022808D8EF
:100AB00028688001F7D509E0FFF780FC001B0228B9
:100AC00001D90320FEBD28688001F5D40020FEBDB9
:100AD0000120FEBD0010024000700040881300009D
:100AE000094910B5401E884201D9012010BD074CAC
:100AF00060610321081F00F07DFE0020A061072037
:100B00002061002010BD0000FFFFFF0000E000E0BA
:100B10007047704770B502462032137F012B1BD0FF
:100B20000123137702245477046865687026B5435F
:100B30006560046865680E68354365600468A5688B
:100B40008026B543A5600068846849680C438460CA
:100B500053770020107770BD022070BD704770B5CC
:100B60000446006801690025C9438907002915DB8F
:100B7000C168C943890711D4E91E016101202077AA
:100B8000206880698007204602D0FFF7E7FF04E075
:100B900000F0BEF8204600F059F925772068016979
:100BA000C943490717D4C168C943490713D404216D
:100BB000C943016102202077206880698005800F89
:100BC000204602D0FFF7CAFF04E000F0A1F820465B
:100BD00000F03CF9257720680169C943090716D45C
:100BE000C168C943090712D40821C943016104201F
:100BF00020772068C0698007204602D0FFF7AEFF4B
:100C000004E000F085F8204600F020F92577206800
:100C10000169C943C90617D4C168C943C90613D4B9
:100C20001021C9430161082020772068C069800530
:100C3000800F204602D0FFF791FF04E000F068F833
:100C4000204600F003F9257720680169C943C907E8
:100C500008D1C168C943C90704D1891E0161204672
:100C600000F018F920680169C943090609D4C16870
:100C7000C943090605D48021C94301612046FFF715
:100C800047FF20680169C943490609D4C168C943BF
:100C9000490605D44021C9430161204600F0FBF814
:100CA00020680169C943890609D4C168C943890616
:100CB00005D42021C94301612046FFF72AFF70BDFA
:100CC00010B586B0044614216846FFF738FA0E497D
:100CD0002068884215D10D48426949130A43426190
:100CE000406908400590802000900220019000207B
:100CF000029003900120049009206946C006FFF786
:100D0000AFFA06B010BD0000000400400010024021
:100D10007047F8B5064604462036307F0D46012858
:100D20000DD001203077022070770427002A08D0E8
:100D3000042A16D0082A2AD00C2A4DD137E00220E6
:100D4000F8BD206800F066FE206881690822114322
:100D5000816120688169B9438161206881692A695C
:100D600012E0206800F092FE206882690121C90229
:100D70000A43826120688169012292029143816164
:100D8000206881692A6912021143816124E0206888
:100D900000F0B6FE2068C26908210A43C2612068DB
:100DA000C169B943C1612068C1692A6912E020683C
:100DB00000F0E2FE2068C1690122D2021143C16144
:100DC0002068C269012189028A43C2612068C16921
:100DD0002A6912021143C161012070770020307727
:100DE000F8BD70B5040005D025462035687F002881
:100DF00002D006E0012070BD00202877204600F0D8
:100E00000BF802206877211D206800F0BBFD01204F
:100E10006877002070BD000008B500680949884265
:100E20000FD10948C26902210A43C261C069002288
:100E30000840009011461020FFF748FB1020FFF7F4
:100E40003BFB08BD0004004000100240704700005A
:100E500010B504460068012200F0D0FD0A48216860
:100E6000814205D00948814202D00948814204D11B
:100E7000486C0122D20310434864206801680122B3
:100E800011430160002010BD002C014000440140CE
:100E9000004801407047704770470000F8B503688C
:100EA0000446D96918680D072D0F07D18A0605D5A4
:100EB000820603D5204600F023FFF8BD9A68002D76
:100EC00064D0D507ED0FFF26213606402E435DD0B6
:100ED000CE0706D0C60504D501261E62E36E334355
:100EE000E3668F0702230426002F06DAD70704D013
:100EF00027683B62E76E3743E7664F0706D5D207A0
:100F000004D022681662E26E1A43E2660A0709D527
:100F1000202202402A4305D0236808221A62E36E89
:100F20001343E366E26E002AC7D0890604D5800623
:100F300002D5204600F0E4FEE06E000703D42068EE
:100F4000806840061CD5204600F0BEFE20688168FF
:100F5000490611D58168402291438160606E002866
:100F60000AD012494163606EFFF748F90028A4D007
:100F7000606E416B8847F8BD2046FFF78DFFF8BDD6
:100F80002046FFF789FF0020E066F8BD0A0605D578
:100F9000020603D5204600F07BFFF8BD4906FCD5CC
:100FA0004006FAD5204600F09EFEF8BDB51C0008AC
:100FB00070B5040005D025466035687A002802D057
:100FC00006E0012070BD00202872204600F026F8BF
:100FD00024206872206801684908490001602046A1
:100FE00000F0CCFE0128EDD0606A002802D0204637
:100FF00000F0F2FD206841680122D2029143416075
:10100000206881680822914381602068016801227C
:1010100011430160204600F044FE70BD10B586B05B
:10102000044614216846FFF78AF81649206888426A
:1010300026D115488269012189030A4382618269A8
:101040000A4005924269C9000A434261406908406A
:1010500005900C20009002200190002002900320B7
:1010600003900120049009206946C006FFF7F8F8B4
:10107000002211461B20FFF729FA1B20FFF71CFA5C
:1010800006B010BD003801400010024070B50346A4
:1010900060339C7A202C39D100290BD0002A09D04A
:1010A000012584682D03AC4206D10669002E03D1C8
:1010B000CE0701D0012070BD1E7A012E26D0012658
:1010C0001E724165014640310A834A83FF22AC42C9
:1010D00004D10469002C07D10D4A05E0002C04D18D
:1010E0000469002C00D07F228A830021C16622225D
:1010F0009A72197201688A6832438A6000680168CE
:10110000FF22213211430160002070BD022070BD1A
:10111000FF010000034910B5884202D1024800F0E7
:1011200031FB10BDF40200201C000020FFB5064674
:1011300004466036707A83B00D46202858D1002DC1
:101140000CD00598002809D00120A1680003814235
:1011500007D12069002804D1E80702D0012007B098
:10116000F0BD307A012843D0012030720020E066C3
:1011700021207072FFF722F9019027464037059829
:1011800038820598788218E0788A401E788206981E
:101190000090002280212046019B00F0ACFE002838
:1011A00018D10120A1680003814202D120690028E2
:1011B00012D02168287808856D1C788A0028E3D130
:1011C00006980090002240212046019B00F093FEEB
:1011D000002808D00320C2E728882168C005C00D78
:1011E0000885AD1CE9E72020707200203072B6E758
:1011F0000220B4E77047FEE7F0B587B014216846D7
:10120000FEF79DFF21484269012189050A43426199
:1012100042690A400592426949110A4342614069A4
:101220001B4E08400590002201213046FFF7C0F810
:101230000927FF06002240213846FFF7B9F80125AB
:101240000024009502946946304601950394FFF707
:1012500007F8202000900F48019069460294384614
:10126000FEF7FEFF4020009002946946019503942A
:101270003846FEF7F5FF002211460720FFF726F952
:101280000720FFF719F907B0F0BD00000010024079
:10129000001400480000111010B50848064901600C
:1012A000022141600649C1608160FFF78DF8002886
:1012B00001D0FEF789FF10BD00300040A4020020DD
:1012C000FF0F000070B58AB000240E460546079453
:1012D0001C2168460894FEF732FF184A16486D1E16
:1012E000946021C294606320146150601348FFF73A
:1012F00078FD002801D0FEF767FF079407A90F4883
:101300000894FFF707FC002801D0FEF75DFF60207E
:101310000594019600900294049404226946069470
:101320000648FFF7F6FC002801D0FEF74DFF034802
:10133000FFF7C6FC0AB070BD00040040B4020020F4
:1013400010B50C480A4901604B2149024160002157
:101350008160C16001618161C1610C2201624261F1
:101360004162FFF725FE002801D0FEF72DFF10BDDA
:1013700000380140F4020020F3B5044681B001209A
:10138000A0800A26E6604B20002526614002A56069
:101390002060142000F0D4FE2C4F606100282DD076
:1013A000E1684900FEF7CBFE6420E062A56220639D
:1013B000C82000F0C5FE6063002821D0E16A490022
:1013C000FEF7BDFEE66126621420A56100F0B8FEBE
:1013D0006062002816D0E1694900FEF7B0FE4B219B
:1013E00023680922490292015F1A0520A2188B4244
:1013F00015D009DC1648191A0ED10FE0E760D3E7C3
:10140000E762DFE7E761EAE74B210902791A06D0D4
:10141000E1231B02994202D0167101E00F201071E6
:101420001570D570D58001201072E11D2046FF3166
:10143000FF34FA3139343830CC6388630298086558
:1014400001220449FFF722FEFEBD00000F27000025
:101450008025000000000020F0B50546FF30FF3079
:101460000230846B6078002837D0C11F082934D33C
:10147000102832D8092080012E18707801460839CA
:10148000F3297BD2801EC1B22046FEF775FE0146CD
:101490007278A01E12185078127800021043814210
:1014A0006CD1E078A1780002084342BA60792179D2
:1014B000000208436178012340BA01290FD00229B4
:1014C0000DD005294BD00F2963D0032972D00429F0
:1014D00071D0062970D010296FD00120F0BD0F21E6
:1014E000890188424AD8A968914267DC2F6911189E
:1014F000B942FADCA11C47070BD0C7087F1C0F704C
:10150000491C8C462989511A89B28E4600221146FF
:1015100020E0C708F3E773466F695B00FF5A634634
:10152000002F04D01B78012797401F4303E01F784A
:10153000012393409F43521C6346D2B21F70082A76
:1015400002D300225B1C9C4673465B1C9BB2491C69
:101550009E4689B28142DED3A078401D16E0A9687C
:1015600091422BDC2C69944228DDFF242402A04206
:1015700005D1511A68694900435206E054E0002839
:1015800052D1511A6B69490058520820B07000209E
:10159000F0BDA9688C46914277DC2F691118B942D9
:1015A00073DC67466D69D21B52000021AD180A46F4
:1015B000E41D16E018E035E054E05EE065E02778D1
:1015C00001238B401F4201D0012300E000232B8028
:1015D000491CC9B2AD1C082901D30021641C521C4E
:1015E00092B28242EBD3D0E77D281DD8AB6A9342FA
:1015F0004BDC2F6B1118B94247DCD21A6D6B4300DC
:101600005200A370AA180023E11C08E015885B1C97
:101610002D120D7015784D70891C9BB2921C83425F
:10162000F4D399E77D2801D90320F0BDAB6993423B
:101630002BDC2F6A1118B94227DCD21A6D6A4300DD
:101640005200A370AA180023E11C08E015885B1C57
:101650002D120D7015784D70891C9BB2921C83421F
:10166000F4D379E7A96A91420FDC2C6B94420CDD2C
:10167000511A6C6B490060521DE0A96A8C46914278
:1016800003DC2F6B1118B94201DD0220F0BD614669
:101690006D6B511A49006A180021E41D09E0257894
:1016A000491C2D021580677889B22F431780921C40
:1016B000A41C8142F3D3337267E7F8B506460920CC
:1016C00080013518E8882979884251D9F41DFF3402
:1016D000FA34A16BE06BE163A063297869700022A2
:1016E0002A700122EA70082940D304210078715E33
:1016F00088423BD1FEF76AFD07463046FFF7ACFE55
:101700006871002814D0A06B802241781143417089
:10171000A16B687988700321A06BFEF72DFDA16B8A
:10172000C870000AA16B05220871A16B206D13E03F
:10173000A878801EC1B2A06BFEF71EFDAA78A16B2F
:10174000891820398877010AAA78A06B8018203878
:10175000C177AA78A16B206D00F006FCE06CF16AFD
:10176000381A4900726B891E5052E7640020E880E5
:10177000F8BD00000249C888401CC88070470000BE
:101780005C02002070B5092189014118C21DCC7886
:10179000FF320023FA32002C0ED00425455F0A48A0
:1017A0000478A54203D00878002800D1CB700878CF
:1017B000D66B451C0D703454CB80106D012202494C
:1017C000FFF764FC70BD00000000002010B5024966
:1017D0000248FFF7D1FD10BDF40200201C000020DC
:1017E00010B50248FFF769FF10BD00001C00002083
:1017F000704700008307FF22DB0E9A408907090E1D
:10180000994000280BDA0007000F083883080848C1
:101810009B001818C36993430B43C3617047830847
:1018200004489B001B1818689043084318607047D1
:1018300000ED00E000E400E0704770470A2805D2A0
:101840004000034A491C11521432115270470000E3
:101850007002002010B5FEF7F1FDFFF78BFF0B487B
:101860004168491C41600168002902D10168491E94
:101870000160074A00204100535A012B02D9535AF4
:101880005B1E5352401C0A28F5DB10BD04000020EB
:101890008402002030B5074B00201C4614341D463E
:1018A0000146283542009952A1522954401C0A2869
:1018B000F8DB30BD7002002030B595B030216846AD
:1018C000FEF73DFC00240F940A200D940E94012590
:1018D00000900C941294139410201194039504908A
:1018E0001094079508946846FEF750FF07200C9067
:1018F0000D940E9400210F940CA8FEF75FFE10A823
:1019000010951294FEF7E6FD15B030BD134801683E
:101910000122114301604168114A11404160016890
:10192000104A114001600168012292049143016054
:1019300041683F22120491434160C16A09090901CB
:10194000C162016BFF22143291430163416B49086C
:10195000490041630021816070470000001002408F
:101960000CB8FF08FFFFF6FE10B50448FFF7F7F8C4
:101970000348416B8888401C888010BDB402002059
:101980001C00002070B50268174B184E984201D019
:10199000B04203D17024A2434C682243144C154D2D
:1019A000984208D0B04206D0134EB04203D0A042B5
:1019B00001D0A84204D103263602B243CE68324396
:1019C0008026B2434E69324302608A68C2620A6866
:1019D0008262984203D0A04201D0A84201D1096995
:1019E00001630121416170BD002C014000040040F1
:1019F00000440140004801400020004010B5012390
:101A0000046A8B409C430462036A8A401343036266
:101A100010BD0000F0B5026A520852000262056A69
:101A2000436882697024A24392080C6892001443B0
:101A3000022295438A68134E2A43114DA84204D0CE
:101A4000B04202D0104FB84206D10827BA43CF683F
:101A50001743042297433A46A84204D0B04202D02A
:101A6000094DA84206D103252D02AB434D691D4304
:101A70008B692B4343608461496841630262F0BD16
:101A8000002C0140004401400048014070B5026A4A
:101A900010239A430262046A4368826973252D0207
:101AA000AA430D682D021543202294438A6812012F
:101AB0002243104CA04208D11446CA688026B44381
:101AC000120122434024A24305E00B4CA04202D065
:101AD0000A4CA04208D10324A402A3434C69A400E9
:101AE0001C438B699B002343436085614968816384
:101AF000026270BD002C01400044014000480140DA
:101B000070B5026AFF2301339A430262046A436894
:101B1000C2697025AA4392080D68920015430122FC
:101B2000520294438A6812022243104CA04207D109
:101B3000C414A243CC68240222430615B24305E034
:101B40000B4CA04202D00B4CA04208D1032424032A
:101B5000A3434C6924011C438B691B01234343604D
:101B6000C5614968C163026270BD0000002C01407C
:101B7000004401400048014030B5026A01231B03C4
:101B80009A430262056A4268C36973242402A3432C
:101B90000C6824021C4301235B039D438B681B03D9
:101BA0002B430A4DA84205D0094DA84202D0094D49
:101BB000A84205D10125AD03AA434D69AD012A43D1
:101BC0004260C46149680164036230BD002C014079
:101BD000004401400048014010B5818CC90707D07E
:101BE00001684A6801235B049A43836A1A434A6086
:101BF000818C890707D501684A6801231B049A4331
:101C0000C36A1A434A60818C490707D501684A684C
:101C100001239B049A43036B1A434A60818C090792
:101C200007D501684A680123DB039A43436B1A43D3
:101C30004A60818CC90607D50268916801231B039D
:101C40009943836B19439160818C890607D501689C
:101C50008A6801235B039A43C36B1A438A60818CB1
:101C6000490612D503685A6801210905046C8A43A4
:101C700022435A60026C8A4207D1026851680323EA
:101C80005B059943436C19435160818C090607D564
:101C900001684A680123DB04806C9A4302434A606E
:101CA00010BD0021C1662022603042728272017232
:101CB0000846704710B5406A0022014640314A8309
:101CC0004A82FFF7E9F810BD01680A68FF23213353
:101CD0009A430A6001688A68520852008A6020218B
:101CE00060308172704710B501680A6840239A43DA
:101CF0000A60202269210A54FFF77CFA002010BDF7
:101D000070B50246403203466033948B9D7A016879
:101D1000222D05D08869082210438861022070BDF9
:101D2000898C012685683603B54202D10569002DEC
:101D30000BD02140446D651C45652170518B491EB7
:101D40000904090C518307D015E0456D2140298015
:101D5000416D891C4165F1E701680A68FF2421345F
:101D6000A2430A6001688A68520852008A602021F2
:101D70009972FFF7CFF9002070BD0000F8B5044656
:101D80002369A268E6691A4363691021334300207E
:101D900026681A4333680546394F3B401343336086
:101DA00023685A6803263603B243E66832435A6012
:101DB000236AA26926681A43B3680B273F02BB4314
:101DC0001343B3602F4A126B9207920F06D0012A79
:101DD00008D0022A08D0032A07D101E0002104E03C
:101DE000022102E0042100E008210122E369D2037C
:101DF000934224D100290CD002290DD0042913D0FC
:101E0000082917D00125010909010007400F0843DF
:101E100032E0FEF76FFC09E061681B4A4808801851
:101E2000FEF75EF980B2EEE7FEF774FC61684000F1
:101E30004A08F4E76168012248081204EFE7002924
:101E400008D0022909D004290BD008290ED0012579
:101E50002846F8BDFEF74EFC05E061680B4A4808CD
:101E600006E0FEF757FC61684A0801E0616848082F
:101E70008018FEF735F980B22168C860E8E70000F5
:101E8000F369FFFF001002400024F40000127A0002
:101E90006921095C212901D00220704702464032A5
:101EA000518A002912D0012381681B03994202D173
:101EB0000169002915D0C16C4B1CC3640068097806
:101EC0000185508A401E50820020704701680A68D0
:101ED00080239A430A600068016840221143016030
:101EE000F2E7C16C03680988C905C90D1985C16C81
:101EF000891CC164E5E7FFB581B017460E4604466C
:101F00000A9D1DE0681C1BD0002D05D0FEF756FA77
:101F10000499401AA84213D920680168FF22A1320F
:101F20009143016020688168490849008160202050
:101F300060346072A07200202072032005B0F0BDF2
:101F40002068C1693046884304D00020B842D9D007
:101F50000020F3E70120F9E710B50248FEF79EFFE5
:101F600010BD0000F402002010B592B2034BFFF741
:101F7000DDF8002801D0FEF727F910BDFFFF0000B3
:101F800030B47446641E2578641CAB4200D21D46F2
:101F9000635D5B00E31830BC184702E008C8121FFD
:101FA00008C1002AFAD170477047002001E001C142
:101FB000121F002AFBD170478AB014225B49684681
:101FC000FEF7A4F859491422143105A8FEF79EF82B
:101FD0000025FEF73BFAFFF76FFCFFF70DF9FFF75F
:101FE000AFF9FFF759F9FF26A53632213046FFF742
:101FF00069F9FFF74FFCFFF7E9FBFF21F5310020FE
:10200000FFF71CFC7D2109010120FFF717FCC82107
:102010000220FFF713FC32210320FFF70FFC0122FF
:1020200011464348FEF7C4F9424C606B8682616BEF
:102030003220C882606B0021808AFFF743F90421B7
:102040003D48FEF705FF0920800126180027FFF70D
:10205000C7FB606B018B00290ED0008801280BD1D3
:10206000002D09D16846818A0088FFF72BF90421E9
:102070003148FEF7EDFE01250020FEF7ADF80028FF
:1020800002D02E48FEF7D2F90120FEF7A5F800286D
:1020900003D001212648FEF787F90220FEF79CF8BD
:1020A000002827D0307A002824D0606B0021415EC0
:1020B0000B00FFF765FF150C0C1E1E1E1E1E1E1EBC
:1020C0001E0F0F0F0F0F0F0F0F0F0F371E00808AFD
:1020D000002108E0480005A941186A4680184039E7
:1020E0004038898D808DFFF7EDF804211248FEF706
:1020F000AFFE37720320FEF76FF80028A7D0002D3F
:10210000A5D028466D1C0328A1DD606B0025078340
:10211000606B2946808AFFF7D5F804210648FEF750
:1021200097FE94E7C18A808ADDE70000AC230008AF
:10213000001400481C000020B4020020A40200206B
:10214000F0B50B30C108C900144F0026144A0FE047
:1021500003688B420BD38B4205D95C1A4318456840
:1021600030C3083B00E04368136002C004E0021D76
:1021700010680028ECD13046002803D138680028C8
:1021800001D00020F0BD064A06481060064A121A27
:10219000D208D20044C001203860D7E718000020E0
:1021A000140000206C030020680500200000C1C05E
:1021B00081C1400101C3C003800241C201C6C00603
:1021C000800741C70005C1C581C4400401CCC00CD3
:1021D000800D41CD000FC1CF81CE400E000AC1CA93
:1021E00081CB400B01C9C009800841C801D8C01883
:1021F000801941D9001BC1DB81DA401A001EC1DE03
:1022000081DF401F01DDC01D801C41DC0014C1D4F2
:1022100081D5401501D7C017801641D601D2C01212
:10222000801341D30011C1D181D0401001F0C030E2
:10223000803141F10033C1F381F240320036C1F602
:1022400081F7403701F5C035803441F4003CC1FCD2
:1022500081FD403D01FFC03F803E41FE01FAC03A92
:10226000803B41FB0039C1F981F840380028C1E8C2
:1022700081E9402901EBC02B802A41EA01EEC02E02
:10228000802F41EF002DC1ED81EC402C01E4C024F2
:10229000802541E50027C1E781E640260022C1E212
:1022A00081E3402301E1C021802041E001A0C06022
:1022B000806141A10063C1A381A240620066C1A602
:1022C00081A7406701A5C065806441A4006CC1ACD2
:1022D00081AD406D01AFC06F806E41AE01AAC06A92
:1022E000806B41AB0069C1A981A840680078C1B882
:1022F00081B9407901BBC07B807A41BA01BEC07E02
:10230000807F41BF007DC1BD81BC407C01B4C074F1
:10231000807541B50077C1B781B640760072C1B211
:1023200081B3407301B1C071807041B00050C19061
:10233000819140510193C053805241920196C05601
:10234000805741970055C19581944054019CC05CD1
:10235000805D419D005FC19F819E405E005AC19A91
:10236000819B405B0199C059805841980188C048C1
:1023700080494189004BC18B818A404A004EC18E01
:10238000818F404F018DC04D804C418C0044C184F1
:10239000818540450187C047804641860182C04211
:1023A000804341830041C181818040403C053C0520
:1023B0003C0520031C024001A0006A004E002800DA
:1023C00063005A0050005000500050005000500070
:1023D0005000500000000000000000000102030453
:1023E0000607080900000000010203040C2400088D
:1023F000000000201C0000009A1F0008282400088C
:102400001C0000204C090000AA1F0008000000006A
:1024100000000000000000000000000000127A0030
:082420000000000000000000B4
:04000005080000B13E
:00000001FF
